:020000040000FA
:060000002EEF13F01200C8
:061000002EEF13F01200B8
:06100800D0EF10F0120011
:021018001200C4
:06102A0001009626000003
:081030006A0000000500000049
:0810380048EC11F0D08EF28E9D
:1010400077EC11F0200E081802E19D0E091847E018
:10105000400E081802E19D0E09183FE0100E081816
:1010600002E1F00E091836E0080E081802E1F00E51
:1010700009182DE0100E081802E1F20E091824E0FC
:10108000020E081802E1A00E09181BE0020E081853
:1010900002E19D0E091812E0010E081802E19D0EF2
:1010A000091809E0200E08181CE1F20E091819E1D0
:1010B000F28AD58E16D09D80CD8013D09D82CA84B1
:1010C00010D0A082B1800DD0F288F19C0AD0F086B9
:1010D000F19A07D0F088F19804D09D8C02D09D8AB7
:1010E0009F8A4DEF11F06CC092FF12006CC093FF0D
:1010F00012006CC094FF12009268120093681200F4
:1011000094681200D180120004001200CBEC11F0A0
:1011100002E17C0E091801E113D11E0E081802E14C
:101120007C0E091801E109D11D0E081802E17C0EA0
:10113000091801E1FFD01C0E081802E17C0E091805
:1011400001E1F5D01B0E081802E17C0E091801E13F
:10115000EBD01A0E081802E17C0E091801E1E1D06B
:10116000190E081802E17C0E091801E1D7D0180EFB
:10117000081802E17C0E091801E1CDD0820E081892
:1011800002E10F0E091801E1C3D0170E081802E1A1
:101190007C0E091801E1B9D0160E081802E17C0E88
:1011A000091801E1AFD0120E081802E17C0E0918EF
:1011B00001E1A5D0110E081802E17C0E091801E129
:1011C0009BD0100E081802E17C0E091801E191D0A5
:1011D000810E081802E10F0E091801E187D00F0EE9
:1011E000081802E17C0E091801E17DD00E0E0818E6
:1011F00002E17C0E091874E00D0E081802E17C0E65
:1012000009186BE00C0E081802E17C0E091862E068
:101210000B0E081802E17C0E091859E00A0E081896
:1012200002E17C0E091850E0090E081802E17C0E5C
:10123000091847E0080E081802E17C0E09183EE084
:10124000800E081802E10F0E091835E0050E081887
:1012500002E17C0E09182CE0040E081802E17C0E55
:10126000091823E0030E081802E17C0E09181AE0A1
:10127000020E081802E17C0E091811E0010E081890
:1012800002E17C0E091808E008505CE17C0E0918A8
:1012900059E19290808056D09292808253D092945D
:1012A000808450D0929680864DD0929880884AD083
:1012B000929A808A47D0926A896844D093908180BC
:1012C00041D0939281823ED0939481843BD0939677
:1012D000818638D09398818835D0939A818A32D08C
:1012E000939C818C2FD0939E818E2CD0936A8A6898
:1012F00029D09490828026D09492828223D0949494
:10130000828420D0949C828C1DD0949E828E1AD090
:10131000946A8B6817D09590838014D095928382BD
:1013200011D0959483840ED0959683860BD0959892
:10133000838808D0959A838A05D0959C838C02D0A7
:10134000959E838E4DEF11F0CBEC11F002E17C0EF7
:10135000091801E113D11E0E081802E17C0E0918CC
:1013600001E109D11D0E081802E17C0E091801E106
:10137000FFD01C0E081802E17C0E091801E1F5D01F
:101380001B0E081802E17C0E091801E1EBD01A0EC1
:10139000081802E17C0E091801E1E1D0190E0818C5
:1013A00002E17C0E091801E1D7D0180E081802E1FD
:1013B0007C0E091801E1CDD0820E081802E10F0E53
:1013C000091801E1C3D0170E081802E17C0E0918B4
:1013D00001E1B9D0160E081802E17C0E091801E1EE
:1013E000AFD0120E081802E17C0E091801E1A5D059
:1013F000110E081802E17C0E091801E19BD0100EB5
:10140000081802E17C0E091801E191D0810E08183C
:1014100002E10F0E091801E187D00F0E081802E152
:101420007C0E091801E17DD00E0E081802E17C0E39
:10143000091874E00D0E081802E17C0E09186BE023
:101440000C0E081802E17C0E091862E00B0E081859
:1014500002E17C0E091859E00A0E081802E17C0E20
:10146000091850E0090E081802E17C0E091847E03F
:10147000080E081802E17C0E09183EE0800E0818DC
:1014800002E10F0E091835E0050E081802E17C0E86
:1014900009182CE0040E081802E17C0E091823E05C
:1014A000030E081802E17C0E09181AE0020E081853
:1014B00002E17C0E091811E0010E081802E17C0E11
:1014C000091808E008505CE17C0E091859E1929077
:1014D000809056D09292809253D09294809450D023
:1014E000929680964DD0929880984AD0929A809AFF
:1014F00047D0926A896A44D09390819041D0939268
:1015000081923ED0939481943BD09396819638D02B
:101510009398819835D0939A819A32D0939C819CEC
:101520002FD0939E819E2CD0936A8A6A29D0949062
:10153000829026D09492829223D09494829420D048
:10154000949C829C1DD0949E829E1AD0946A8B6A31
:1015500017D09590839014D09592839211D0959442
:1015600083940ED0959683960BD09598839808D047
:10157000959A839A05D0959C839C02D0959E839ED4
:101580004DEF11F0CBEC11F002E17C0E091801E1F6
:10159000F5D01E0E081802E17C0E091801E1EBD00F
:1015A0001D0E081802E17C0E091801E1E1D01C0EA5
:1015B000081802E17C0E091801E1D7D01B0E0818AB
:1015C00002E17C0E091801E1CDD01A0E081802E1E3
:1015D0007C0E091801E1C3D0190E081802E17C0E37
:1015E000091801E1B9D0180E081802E17C0E09189B
:1015F00001E1AFD0170E081802E17C0E091801E1D5
:10160000A5D0160E081802E17C0E091801E19BD046
:10161000120E081802E17C0E091801E191D0110E9A
:10162000081802E17C0E091801E187D0100E081895
:1016300002E17C0E091801E17DD00F0E081802E1CD
:101640007C0E091874E00E0E081802E17C0E0918D1
:101650006BE00D0E081802E17C0E091862E00C0E1A
:10166000081802E17C0E091859E00B0E081802E177
:101670007C0E091850E00A0E081802E17C0E0918C9
:1016800047E0090E081802E17C0E09183EE0080E3A
:10169000081802E17C0E091835E0050E081802E171
:1016A0007C0E09182CE0040E081802E17C0E0918C3
:1016B00023E0030E081802E17C0E09181AE0020E5E
:1016C000081802E17C0E091811E0010E081802E169
:1016D0007C0E091808E0085053E17C0E091850E10F
:1016E000929080704DD0929280724AD09294807481
:1016F00047D09296807644D09298807841D0929A42
:10170000807A3ED0939081703BD09392817238D092
:101710009394817435D09396817632D09398817862
:101720002FD0939A817A2CD0939C817C29D0939E40
:10173000817E26D09490827023D09492827220D0A1
:10174000949482741DD0949C827C1AD0949E827E44
:1017500017D09590837014D09592837211D0959480
:1017600083740ED0959683760BD09598837808D0A5
:10177000959A837A05D0959C837C02D0959E837E32
:101780004DEF11F048EC11F077EC11F0170E08183E
:1017900002E17C0E091801E119D1160E081802E1C8
:1017A0007C0E091801E109D1120E081802E17C0E25
:1017B000091801E1F9D0110E081802E17C0E091890
:1017C00001E1E9D0100E081802E17C0E091801E1D0
:1017D000D9D00F0E081802E17C0E091801E1C9D01A
:1017E0000E0E081802E17C0E091801E1B9D00D0EA9
:1017F000081802E17C0E091801E1A9D00C0E0818A6
:1018000002E17C0E091801E199D00B0E081802E1E3
:101810007C0E091801E189D00A0E081802E17C0E3D
:10182000091801E179D0090E081802E17C0E0918A7
:101830006AE0080E081802E17C0E09185BE0050E4C
:10184000081802E17C0E09184CE0040E081802E1A9
:101850007C0E09183DE0030E081802E17C0E091801
:101860002EE0020E081802E17C0E09181FE0010E9E
:10187000081802E17C0E091810E0085001E0ADD014
:101880007C0E091801E0A9D09290FB0EDB50E8B065
:101890008080E8B0A2D08090A0D09292FB0EDB5066
:1018A000E8B08082E8B099D0809297D09294FB0EF5
:1018B000DB50E8B08084E8B090D080948ED09296CF
:1018C000FB0EDB50E8B08086E8B087D0809685D0EC
:1018D0009298FB0EDB50E8B08088E8B07ED080980C
:1018E0007CD0929AFB0EDB50E8B0808AE8B075D0CD
:1018F000809A73D09390FB0EDB50E8B08180E8B003
:101900006CD081906AD09392FB0EDB50E8B081825C
:10191000E8B063D0819261D09394FB0EDB50E8B0C5
:101920008184E8B05AD0819458D09396FB0EDB5056
:10193000E8B08186E8B051D081964FD09398FB0EE5
:10194000DB50E8B08188E8B048D0819846D0939ABF
:10195000FB0EDB50E8B0818AE8B03FD0819A3DD0E1
:10196000939CFB0EDB50E8B0818CE8B036D0819CB4
:1019700034D0939EFB0EDB50E8B0818EE8B02DD0C2
:10198000819E2BD09490FB0EDB50E8B08280E8B0B3
:1019900024D0829022D09492FB0EDB50E8B0828259
:1019A000E8B01BD0829219D09494FB0EDB50E8B0C3
:1019B0008284E8B012D0829410D0949CFB0EDB504D
:1019C000E8B0828CE8B009D0829C07D0949EFB0ED0
:1019D000DB50E8B0828EE8A0829E4DEF11F0D9CFA7
:1019E000E6FFE1CFD9FF020EE126DE6ADD6ADECF37
:1019F00014F0DDCF15F0FD0EDBCF16F0FE0EDBCFC1
:101A000017F01650145C1750155806E20000DF2A34
:101A1000010E01E3DB2AEBD7020EE15C02E2E16A90
:101A2000E552E16EE552E7CFD9FF1200D0EC11F09C
:101A3000D350200B01E0010E84EC11F0A850FEE120
:101A4000DE6ADD6A5FEC11F005E29DEC11F0FAE36D
:101A5000DB2AF8D7020EE15C02E2E16AE552E16EB0
:101A60004DEF11F048EC11F0040EE126D350200B9D
:101A700001E0010E84EC11F0A850FEE1DE6ADD6A9F
:101A80005FEC11F016E28450080B080A01E0010E29
:101A900001080AE1010EF36E020EF3CFDBFF030E25
:101AA000DB6A640E8FEC11F09DEC11F0E9E3DB2AA8
:101AB000E7D7020EDBCF14F0030EDBCF15F014C016
:101AC000F3FF15C0F4FF040EE15C02E2E16AE552A7
:101AD000E16EE3D3DDDBADEC11F0C16E070E6C25DA
:101AE000C06EDBD3D4EC11F00C0A24E0070A20E02E
:101AF000010A1CE0030A18E0010A14E00C0A10E0D5
:101B0000070A0CE0010A08E0030A04E0010A14E1F4
:101B1000010E11D0050E0FD0090E0DD00D0E0BD0F9
:101B2000110E09D0210E07D0250E05D0290E03D0A5
:101B30002D0E01D0310EC26E0A0EF1DBC09ED350C5
:101B4000200B02E0C28201D0C292C2B2FED7C450C2
:101B5000156AF36E15C0F4FFA0D3D4EC11F00C0A93
:101B600024E0070A20E0010A1CE0030A18E0010A49
:101B700014E00C0A10E0070A0CE0010A08E0030A6E
:101B800004E0010A14E1010E11D0050E0FD0090E78
:101B90000DD00D0E0BD0110E09D0210E07D0250E41
:101BA00005D0290E03D02D0E01D0310EC26E0A0EC3
:101BB000B6DBD350200B02E0C08E01D0C09ED350C4
:101BC000200B02E0C28201D0C292C2B2FED7C3CFC4
:101BD000F3FFC4CFF4FF61D3E7DB030A5CE0020A42
:101BE0003CE0010A75E1A2DB020E081801E1095090
:101BF00031E0040E081801E109502AE0080E081827
:101C000001E1095023E0100E081801E109501CE021
:101C1000200E081801E1095015E0400E081801E1F6
:101C200009500EE0800E081801E1095007E0085045
:101C30004FE1010E09184CE1870E0DD0860E0BD036
:101C4000850E09D0840E07D0830E05D0820E03D0F6
:101C5000810E01D0800ED56E3BD068DB010E0818D6
:101C600001E1095015E0020E081801E109500EE0EB
:101C7000040E081801E1095007E0080E081828E1D1
:101C8000095026E1B10E05D0A10E03D0910E01D06E
:101C9000810ECD6E1DD04ADB010E081801E10950FE
:101CA00015E0020E081801E109500EE0040E0818B4
:101CB00001E1095007E0080E08180AE1095008E19F
:101CC000B10E05D0A10E03D0910E01D0810EB16EE0
:101CD000E4D2DEDA060EE126176A186A010E196EE2
:101CE000FC0EDBCF1AF0FD0EDBCF1BF01C6A1A5086
:101CF000175C146E1B501858156E1C501958166E30
:101D000014C0DEFF15C0DDFF146A010E156E14C08D
:101D10000DF00E6EDECF08F0DDCF09F0F8EC12F01A
:101D2000020E08C0DBFF030E09C0DBFF48DB156AAB
:101D3000040E14C0DBFF050E15C0DBFFFE0EDB50EA
:101D4000030A12E0020A09E0010A14E1020EDB5064
:101D5000D76E040EDB50D66E0DD0020EDB50CF6E68
:101D6000040EDB50CE6E06D0020EDB50B36E040EB6
:101D7000DB50B26E060EE15C02E2E16AE552E16E12
:101D80008CD20EDBD66AC10ED56EDE6ADD6A97DABA
:101D90000BE2060ED624D66EF294F2A4FED7DF2A0A
:101DA000010EF5E3DB2AF3D7020EE15C02E2E16A01
:101DB000E552E16E72D26CDAA69EA69CA684FE0E57
:101DC000DB50A96EFD0EDB50A86E550EA76EAA0E55
:101DD000A76ED350200B02E0A68201D0A692A6B235
:101DE000FED75BD2E1DAA96EA694A69EA69CD3503C
:101DF000200B02E0A68001D0A690A8504ED2FD0E86
:101E0000A96EA69EA69CA680A8B004EF0FF0660E51
:101E1000D36ED3A4FED7FD0EA96E0B0EA914A66E29
:101E2000A85001E0FDD77E0E166E16C00EF0A9CFA9
:101E300009F03CEC13F00538F00B146E156A6AC01B
:101E400008F06BC009F014C00DF015C00EF0F8ECEE
:101E500012F008C06DF06DC0E6FFC4DFE55200016E
:101E60006C6F120015DA040EE126948E949C240EF9
:101E7000AC6E900EAB6E080EB86E6CC018F0196A9E
:101E80001A6A1B6A400E1C6E420E1D6E0F0E1E6EED
:101E90001F6A1CC006F01DC007F0086E1FC009F0C5
:101EA000FB0EDBCF0BF0FC0EDBCF0CF081DAB7ECD6
:101EB00012F018500624146E19500720156E1A508F
:101EC0000820166E1B500920176E1406000E155AB6
:101ED000165A175A14C0DFFF010E15C0DBFF020EA1
:101EE00016C0DBFF030E17C0DBFFD9CFE9FFDACF47
:101EF000EAFFEECF14F0EECF15F0EECF16F0EFCFF5
:101F000017F0080ED8901732163215321432E80640
:101F1000F9E11450B06E000EDB50AF6E040EE15CC0
:101F200002E2E16AE552E16EB8D1B2D9ACA2FED7C5
:101F300014DAAD6EB2D1ACD9ACA2FED70EDAAD6E6A
:101F4000ACD1A6D9ACA2FED7B850080B01E0010E67
:101F5000146EFE0EDB5014C0E7FFE75204E0E842C7
:101F60007F0BE706FCE100016C25AD6E96D190D9A0
:101F7000E6526FC0F6FF70C0F7FF0800F55010E0A2
:101F800000016FC0F6FF70C0F7FF6F2B000E7023CB
:101F90000800F550DF6EDFCFE6FFCDDFE552E9D771
:101FA000E5527BD175D9E65271C0F6FF72C0F7FFDA
:101FB0000800F55010E0000171C0F6FF72C0F7FF95
:101FC000712B000E72230800F550DF6EDFCFE6FFA5
:101FD000B8DFE552E9D7E55260D15AD900016E6BFE
:101FE00060D905E05ED9F0D900016E2BF9D755D143
:101FF0004FD900016E6B55D907E053D9E66EA1DFCA
:10200000E55200016E2BF7D748D142D9E15076D97D
:102010000F0ED880EE54270EED5406E2B5D9100EFF
:102020000D6E270E0E6E25D9D95068D9E70ED880CF
:10203000EE54030EED5420E2FD0EDBCF14F0FE0E45
:10204000DBCF15F0E80E0D6E030E0E6E14C008F017
:1020500015C009F0F8EC12F008C014F009C015F032
:102060000A0E0D6E0E6AF8EC12F004C014F005C0F2
:1020700015F0300E0424A8D9D95040D9630ED88069
:10208000EE54000EED5405E27FD9640E0D6E0E6A1B
:10209000F0D8D95033D9090ED880EE54000EED5443
:1020A00005E272D90A0E0D6E0E6AE3D86DD90A0EDA
:1020B0000D6E0E6A16C008F017C009F053D9EDD0A6
:1020C0006FD90C0E00016C25BD123FD902E0A6802D
:1020D00001D0A690A850FEE1D350200B01E0010EE4
:1020E000146EFD0E00016C25145204E0E846FE0B50
:1020F0001406FCE1EBD81EBE1F6868D8BE6EDECFAA
:1021000016F0DDCF17F0030E1616000E17166C51E1
:1021100000011624146E000E1720156E040ED890C0
:1021200014361536E804FBE11450BD12020EE15CD2
:1021300002E2E16AE552E16EB0D032D90C0E000144
:102140006C25BA1202D902E0A68001D0A690A85050
:10215000FEE1D350200B01E0010E146EFE0E0001D3
:102160006C25145204E0E846FE0B1406FCE1AED8E0
:102170001EBE1F682BD8BB6E22D9030E1416000E8C
:102180001516040ED89014361536E804FBE11450E9
:10219000BA12020EE15C02E2E16AE552E16E7DD024
:1021A000DACFE4FFE652E552E5CFDAFF110027DE91
:1021B000939E8A8E84A6FF008A7EE80EE66E030E4A
:1021C000E66E34DCE552E552F5D71200400E1A6E89
:1021D000420E1B6E0F0E1C6E1AC007F01BC008F0DB
:1021E000096E1DC00CF01EC00DF01FC00EF00EECED
:1021F00012F017500724146E18500820156E19504D
:102200000920166E1406000E155A165A1450CB6E7D
:10221000CB28166E176A086E17C009F0FB0EDBCFCD
:102220000DF0FC0EDBCF0EF03BEC12F006C014F00C
:1022300007C015F0190E0D6E0E6A06C008F007C033
:1022400009F0E8EC11F008C0DEFF09C0DDFF000175
:102250006C51166E176ADE501624146EDD5017206E
:10226000156ED89015321432D8901532143214509D
:10227000120016C008F017C009F0F8EC12F008C000
:1022800016F009C017F00A0E0D6E0E6AB2EF11F0CB
:10229000D9CFE6FFE1CFD9FF1200E552E7CFD9FF52
:1022A00012006E51E76EFD0EDBCFE9FFFE0EDBCFB5
:1022B000EAFFE750E926000EEA22EF5012007FD82D
:1022C00063D81650145C17501558120094166CC041
:1022D00017F0186A196A100E086E096A69D83BEC83
:1022E00012F006C01DF007C01EF01F6A1200FD0E9E
:1022F000DBCF08F0FE0EDBCF09F01200FD0FE96E18
:10230000FF0EDA20EA6E1200146EFC0E00016C253E
:102310001424A96E6C51A9240B0BA66E1200E66E54
:10232000E66A16EC0DF0E552E5521200FC0EDBCF2A
:1023300008F0FD0EDBCF09F01200010EE66E0EEC88
:1023400013F0E552DF2A010E1200070E6C25CA6E4B
:10235000FD0EA96ED350200B1200FE0EDB500001C3
:102360006C251200F8EC12F004C016F005C017F04E
:1023700000016C5100010424146E000E0520156E3E
:10238000300E1424E4EF11F0FD0EDBCF16F0FE0E3C
:10239000DBCF17F012007CDFAADF1F0E0818120037
:1023A00077DF020EE126120073DFFE0EDB50120013
:1023B000FD0EDBCF0DF0FE0EDBCF0EF01200DECFF8
:1023C00014F0DDCF15F01200E66EB5DDE552120017
:1023D000006A0EAEF1EF11F00D6C0E1EE86A0E22CF
:1023E000001E09AEF9EF11F0086C091EE86A092217
:1023F000001EF8EC12F009BE09EF12F000AE000C5E
:10240000086C091EE86A0922046C051EE86A0522A8
:10241000000C00BE00EF12F00188FF0C006A0EAE47
:1024200019EF12F00C6C0D1E0E1EE86A0D220E2222
:10243000001E09AE23EF12F0076C081E091EE86AA1
:1024400008220922001EDBEC12F009BE36EF12F062
:1024500000AE000C076C081E091EE86A082209225B
:10246000036C041E051E04220522000C00BE2AEF88
:1024700012F00188FF0C09C013F008C012F00850D8
:102480000D02F4CF07F0F3CF06F009500E02F4CF9F
:1024900009F0F3CF08F00D02F3500726F45008229C
:1024A000E86A092212500E02F3500726F45008225F
:1024B000E86A09220EAE61EF12F01250085E135066
:1024C000095A13AE000C0D50085E0E50095A000C4C
:1024D0002A0EF66E100EF76E000EF86E000109005F
:1024E000F550656F0900F550666F03E1656701D02F
:1024F0003DD00900F550606F0900F550616F09008B
:10250000F550626F09000900F550E96E0900F550B9
:10251000EA6E090009000900F550636F0900F550E3
:10252000646F09000900F6CF67F0F7CF68F0F8CFC5
:1025300069F060C0F6FF61C0F7FF62C0F8FF0001FC
:10254000635302E1645307E00900F550EE6E630740
:10255000F8E26407F9D767C0F6FF68C0F7FF69C003
:0E256000F8FF00016507000E665BBFD7120092
:02256E00056AFC
:10257000046A036A026A200EE76ED89006360736B0
:102580000836093602360336043605360B50025C2F
:102590000C5003580D5004580E50055809E30B50C9
:1025A000025E0C50035A0D50045A0E50055A062A6A
:0625B000E72EE4D7120043
:0A25B600056A046A036A180EE76E56
:1025C000D8900736083609360336043605360C50DF
:1025D000035C0D5004580E50055807E30C50035E81
:1025E0000D50045A0E50055A072AE72EEAD712005A
:1025F000056A046A100EE76ED8900836093604366C
:1026000005360D50045C0E50055805E30D50045E70
:0C2610000E50055A082AE72EF0D71200E1
:04261C00FF0EE3507A
:10262000206E480E01D04C0EE76EE72EFED7E76A0B
:0C263000E72EFED7202EF7D70000120086
:04263C00000EF36E2B
:1026400000EE00F0080E01D81200EA6002D0EE6A37
:0C265000FCD7F350E9601200EE6AFCD7E2
:04265C0013EE00F089
:1026600023EE00F0F86A019C68EC12F04AEC13F0DB
:08267000D7EC10F0FBD71200BB
:08267800056A080EE76ED89018
:10268000093605360E50055C02E3056E092AE72E71
:04269000F7D7120066
:02269400120032
:05269600DF0F0FDF0063
:00000001FF
