:020000040000FA
:060000002CEF15F01200C8
:061000002CEF15F01200B8
:0610080085EF0FF012005D
:021018001200C4
:06102A000100922A000003
:08103000600000001B0000003D
:081038001CEC12F0D08EF28EC8
:1010400059EC12F0200E251802E19D0E261847E0FB
:10105000400E251802E19D0E26183FE0100E2518BF
:1010600002E1F00E261836E0080E251802E1F00E17
:1010700026182DE0100E251802E1F20E261824E0A5
:10108000020E251802E1A00E26181BE0020E2518FC
:1010900002E19D0E261812E0010E251802E19D0EB8
:1010A000261809E0200E25181CE1F20E261819E179
:1010B000F28AD58E16D09D80CD8013D09D82CA84B1
:1010C00010D0A082B1800DD0F288F19C0AD0F086B9
:1010D000F19A07D0F088F19804D09D8C02D09D8AB7
:1010E0009F8A21EF12F062C092FF120062C093FF4C
:1010F000120062C094FF12009268120093681200FE
:1011000094681200D180120004001200BFEC12F0AB
:10111000820E251802E10F0E261801E1C3D0170E2A
:10112000251802E17C0E261801E1B9D0160E25180B
:1011300002E17C0E261801E1AFD0120E251802E163
:101140007C0E261801E1A5D0110E251802E17C0EB7
:10115000261801E19BD0100E251802E17C0E2618FE
:1011600001E191D0810E251802E10F0E261801E150
:1011700087D00F0E251802E17C0E261801E17DD0E4
:101180000E0E251802E17C0E261874E00D0E2518AF
:1011900002E17C0E26186BE00C0E251802E17C0E95
:1011A000261862E00B0E251802E17C0E261859E085
:1011B0000A0E251802E17C0E261850E0090E2518AB
:1011C00002E17C0E261847E0080E251802E17C0E8D
:1011D00026183EE0800E251802E10F0E261835E095
:1011E000050E251802E17C0E26182CE0040E2518A9
:1011F00002E17C0E261823E0030E251802E17C0E86
:1012000026181AE0020E251802E17C0E261811E0BD
:10121000010E251802E17C0E261808E0255044E155
:101220007C0E261841E1929080803ED0929280827E
:101230003BD09294808438D09296808635D0929814
:10124000808832D0929A808A2FD0926A89682CD076
:101250009390818029D09392818226D09394818427
:1012600023D09396818620D0939881881DD0939A1D
:10127000818A1AD0939C818C17D0939E818E14D032
:10128000936A8A6811D0949082800ED09492828260
:101290000BD09494828408D0949C828C05D0949E28
:1012A000828E02D0946A8B6821EF12F0BFEC12F0AC
:1012B000820E251802E10F0E261801E1C3D0170E89
:1012C000251802E17C0E261801E1B9D0160E25186A
:1012D00002E17C0E261801E1AFD0120E251802E1C2
:1012E0007C0E261801E1A5D0110E251802E17C0E16
:1012F000261801E19BD0100E251802E17C0E26185D
:1013000001E191D0810E251802E10F0E261801E1AE
:1013100087D00F0E251802E17C0E261801E17DD042
:101320000E0E251802E17C0E261874E00D0E25180D
:1013300002E17C0E26186BE00C0E251802E17C0EF3
:10134000261862E00B0E251802E17C0E261859E0E3
:101350000A0E251802E17C0E261850E0090E251809
:1013600002E17C0E261847E0080E251802E17C0EEB
:1013700026183EE0800E251802E10F0E261835E0F3
:10138000050E251802E17C0E26182CE0040E251807
:1013900002E17C0E261823E0030E251802E17C0EE4
:1013A00026181AE0020E251802E17C0E261811E01C
:1013B000010E251802E17C0E261808E0255044E1B4
:1013C0007C0E261841E1929080903ED092928092BD
:1013D0003BD09294809438D09296809635D0929853
:1013E000809832D0929A809A2FD0926A896A2CD0B3
:1013F0009390819029D09392819226D09394819456
:1014000023D09396819620D0939881981DD0939A5B
:10141000819A1AD0939C819C17D0939E819E14D060
:10142000936A8A6A11D0949082900ED0949282929C
:101430000BD09494829408D0949C829C05D0949E66
:10144000829E02D0946A8B6A21EF12F0BFEC12F0F8
:101450001F0E251802E17C0E261801E1AFD0170EF1
:10146000251802E17C0E261801E1A5D0160E2518DC
:1014700002E17C0E261801E19BD0120E251802E134
:101480007C0E261801E191D0110E251802E17C0E88
:10149000261801E187D0100E251802E17C0E2618CF
:1014A00001E17DD00F0E251802E17C0E261874E0B4
:1014B0000E0E251802E17C0E26186BE00D0E251885
:1014C00002E17C0E261862E00C0E251802E17C0E6B
:1014D000261859E00B0E251802E17C0E261850E064
:1014E0000A0E251802E17C0E261847E0090E251881
:1014F00002E17C0E26183EE0080E251802E17C0E63
:10150000261835E0050E251802E17C0E26182CE081
:10151000040E251802E17C0E261823E0030E251880
:1015200002E17C0E26181AE0020E251802E17C0E5C
:10153000261811E0010E251802E17C0E261808E09D
:1015400025503EE17C0E26183BE19290807038D009
:101550009292807235D09294807432D09296807636
:101560002FD0929880782CD0929A807A29D093901C
:10157000817026D09392817223D09394817420D06D
:10158000939681761DD0939881781AD0939A817A18
:1015900017D0939C817C14D0939E817E11D094901F
:1015A00082700ED0949282720BD09494827408D080
:1015B000949C827C05D0949E827E02D0959E837EF0
:1015C00021EF12F0BFEC12F0170E251802E17C0E8D
:1015D000261801E119D1160E251802E17C0E2618F5
:1015E00001E109D1120E251802E17C0E261801E155
:1015F000F9D0110E251802E17C0E261801E1E9D080
:10160000100E251802E17C0E261801E1D9D00F0E2C
:10161000251802E17C0E261801E1C9D00E0E25180E
:1016200002E17C0E261801E1B9D00D0E251802E169
:101630007C0E261801E1A9D00C0E251802E17C0EC3
:10164000261801E199D00B0E251802E17C0E261810
:1016500001E189D00A0E251802E17C0E261801E16D
:1016600079D0090E251802E17C0E26186AE0080ED2
:10167000251802E17C0E26185BE0050E251802E114
:101680007C0E26184CE0040E251802E17C0E26186C
:101690003DE0030E251802E17C0E26182EE0020E16
:1016A000251802E17C0E26181FE0010E251802E124
:1016B0007C0E261810E0255001E0ADD07C0E2618D7
:1016C00001E0A9D09290FB0EDB50E8B08080E8B03A
:1016D000A2D08090A0D09292FB0EDB50E8B0808226
:1016E000E8B099D0809297D09294FB0EDB50E8B08E
:1016F0008084E8B090D080948ED09296FB0EDB5020
:10170000E8B08086E8B087D0809685D09298FB0EAE
:10171000DB50E8B08088E8B07ED080987CD0929A88
:10172000FB0EDB50E8B0808AE8B075D0809A73D0A9
:101730009390FB0EDB50E8B08180E8B06CD08190D4
:101740006AD09392FB0EDB50E8B08182E8B063D0A0
:10175000819261D09394FB0EDB50E8B08184E8B0B5
:101760005AD0819458D09396FB0EDB50E8B0818616
:10177000E8B051D081964FD09398FB0EDB50E8B083
:101780008188E8B048D0819846D0939AFB0EDB5010
:10179000E8B0818AE8B03FD0819A3DD0939CFB0E9F
:1017A000DB50E8B0818CE8B036D0819C34D0939E79
:1017B000FB0EDB50E8B0818EE8B02DD0819E2BD09F
:1017C0009490FB0EDB50E8B08280E8B024D0829089
:1017D00022D09492FB0EDB50E8B08282E8B01BD09E
:1017E000829219D09494FB0EDB50E8B08284E8B06A
:1017F00012D0829410D0949CFB0EDB50E8B0828C07
:10180000E8B009D0829C07D0949EFB0EDB50E8B074
:10181000828EE8A0829E21EF12F0D9CFE6FFE1CFC1
:10182000D9FF020EE126DE6ADD6ADECF31F0DDCFC0
:1018300032F00C0E256E266AFD0EDBCF2AF0FE0E6E
:10184000DBCF2BF065EC14F023C033F024C034F070
:101850003350315C3450325806E20000DF2A010E6A
:1018600001E3DB2AE2D7020EE15C02E2E16AE55223
:10187000E16EE552E7CFD9FF1200C2EC12F0FC0E88
:1018800000016225010FA96E6251A9240B0BA66EFF
:10189000A850FEE1DE6ADD6A49EC12F00AE2010EB0
:1018A000E66E0CEC15F0E552DF2A010EF5E3DB2ABB
:1018B000F3D7020EE15C02E2E16AE552E16E21EF4C
:1018C00012F01CEC12F08AEC12F0C16E070E6225C9
:1018D000C06E21EF12F0C6EC12F00C0A24E0070AE9
:1018E00020E0010A1CE0030A18E0010A14E00C0AD7
:1018F00010E0070A0CE0010A08E0030A04E0010A0C
:1019000014E1010E11D0050E0FD0090E0DD00D0EF1
:101910000BD0110E09D0210E07D0250E05D0290EAF
:1019200003D02D0E01D0310EC26E7BEC12F0C09EA2
:10193000C282C2B2FED7C450326AF36E32C0F4FF24
:1019400021EF12F0C6EC12F00C0A24E0070A20E0A6
:10195000010A1CE0030A18E0010A14E00C0A10E076
:10196000070A0CE0010A08E0030A04E0010A14E196
:10197000010E11D0050E0FD0090E0DD00D0E0BD09B
:10198000110E09D0210E07D0250E05D0290E03D047
:101990002D0E01D0310EC26E7BEC12F0C08EC282D1
:1019A000C2B2FED7C3CFF3FFC4CFF4FF21EF12F0D2
:1019B000C6EC12F0030A5FE0020A3EE0010A01E011
:1019C00078D06DEC12F0020E251801E1265031E0BE
:1019D000040E251801E126502AE0080E251801E121
:1019E000265023E0100E251801E126501CE0200EA1
:1019F000251801E1265015E0400E251801E126507A
:101A00000EE0800E251801E1265007E0255051E137
:101A1000010E26184EE1870E0DD0860E0BD0850ED6
:101A200009D0840E07D0830E05D0820E03D0810E1C
:101A300001D0800ED56E3DD06DEC12F0010E251850
:101A400001E1265015E0020E251801E126500EE0B6
:101A5000040E251801E1265007E0080E251829E19B
:101A6000265027E1B10E05D0A10E03D0910E01D072
:101A7000810ECD6E1ED06DEC12F0010E251801E125
:101A8000265015E0020E251801E126500EE0040E46
:101A9000251801E1265007E0080E25180AE1265016
:101AA00008E1B10E05D0A10E03D0910E01D0810E38
:101AB000B16E21EF12F01CEC12F0060EE126346A32
:101AC000356A010E366EFC0EDBCF37F0FD0EDBCF34
:101AD00038F0396A3750345C316E38503558326ED0
:101AE00039503658336E31C0DEFF32C0DDFF316A07
:101AF000010E326E31C02AF02B6EDECF25F0DDCF25
:101B000026F0F6EC14F0020E25C0DBFF030E26C013
:101B1000DBFFCAEC12F0326A040E31C0DBFF050EA7
:101B200032C0DBFFFE0EDB50030A12E0020A09E0BE
:101B3000010A14E1020EDB50D76E040EDB50D66EA4
:101B40000DD0020EDB50CF6E040EDB50CE6E06D0F1
:101B5000020EDB50B36E040EDB50B26E060EE15C7B
:101B600002E2E16AE552E16E21EF12F0C2EC12F0FE
:101B7000D66AC10ED56EDE6ADD6A49EC12F00BE260
:101B8000060ED624D66EF294F2A4FED7DF2A010EFA
:101B9000F4E3DB2AF2D7020EE15C02E2E16AE552ED
:101BA000E16E21EF12F01CEC12F0A69EA69CA6841A
:101BB000FE0EDB50A96EFD0EDB50A86E550EA76E13
:101BC000AA0EA76EA682A6B2FED721EF12F0C6EC2F
:101BD00012F0A96EA694A69EA69CA680A85021EFFE
:101BE00012F0FD0EA96E0B0EA914A66EA850FEE110
:101BF0007E0E336E2B6EA9CF26F03AEC15F022380C
:101C0000F00B316E326A60C025F061C026F02A6E9A
:101C100032C02BF0F6EC14F025C063F025C0E6FFCF
:101C2000D6DFE5520001626F12001CEC12F0040EC8
:101C3000E126948E949C240EAC6E900EAB6E080E32
:101C4000B86E62C035F0366A376A386AA1EC12F0B5
:101C5000FB0EDBCF28F0FC0EDBCF29F0AFEC12F04F
:101C6000D2EC14F0B6EC12F0336E38502620346EFD
:101C70003106000E325A335A345A31C0DFFF010E9A
:101C800032C0DBFF020E33C0DBFF030E34C0DBFFCC
:101C9000D9CFE9FFDACFEAFFEECF31F0EECF32F065
:101CA000EECF33F0EFCF34F0080ED8903432333229
:101CB00032323132E806F9E13150B06E000EDB50BD
:101CC000AF6E040EE15C02E2E16AE552E16EB9D367
:101CD000B3DBACA2FED78AEC12F0AD6EB2D3ACDBB4
:101CE000ACA2FED78AEC12F0AD6EABD3A5DBACA2F2
:101CF000FED7B850080B01E0010E316EFE0EDB502E
:101D000031C0E7FFE75204E0E8427F0BE706FCE161
:101D100000016225AD6E95D38FDBE6527BC0F6FFE6
:101D20007CC0F7FF0800F55010E000017BC0F6FF13
:101D30007CC0F7FF7B2B000E7C230800F550DF6E84
:101D4000DFCFE6FFCCDFE552E9D7E5527AD374DB8B
:101D5000E6527DC0F6FF7EC0F7FF0800F55010E0A8
:101D600000017DC0F6FF7EC0F7FF7D2B000E7E23B5
:101D70000800F550DF6EDFCFE6FFB8DFE552E9D7A8
:101D8000E5525FD359DB0001646B5FDB06E05DDB8E
:101D9000CFEC12F00001642BF8D753D34DDB0001D8
:101DA000646B53DB07E051DBE66EA0DFE552000118
:101DB000642BF7D746D340DBE15089DB0F0ED88088
:101DC000EE54270EED5406E27BDB100E2A6E270E32
:101DD0002B6E23DBD9507BDBE70ED880EE54030E4D
:101DE000ED5420E2FD0EDBCF31F0FE0EDBCF32F002
:101DF000E80E2A6E030E2B6E31C025F032C026F09D
:101E0000F6EC14F025C031F026C032F00A0E2A6E2E
:101E10002B6AF6EC14F021C031F022C032F0300E03
:101E20002124BDDBD95053DB630ED880EE54000E65
:101E3000ED5405E245DB640E2A6E2B6AEEDAD950CA
:101E400046DB090ED880EE54000EED5405E238DB77
:101E50000A0E2A6E2B6AE1DA33DB0A0E2A6E2B6A2F
:101E600033C025F034C026F05ADBEBD28BDB0C0EEE
:101E700000016225BD1247DBA850FEE1FD0EF3DA3A
:101E80003EAE02D03F68406884DABE6EDECF33F0EB
:101E9000DDCF34F0030E3316000E3416625100010C
:101EA0003324316E000E3420040ED8903136E8040D
:101EB000FCE13150BD12020EE15C02E2E16AE55242
:101EC000E16EBFD25FDB0C0E00016225BA121BDB94
:101ED000A850FEE1FE0EC7DA3EAE02D03F68406871
:101EE00058DABB6E57DB030E3116000E3216040EA5
:101EF000D8903136E804FCE13150BA12020EE15CB0
:101F000002E2E16AE552E16E9CD2DACFE4FFE2CF71
:101F1000DAFFE9CFE4FFEACFE4FFF6CFE4FFF7CF43
:101F2000E4FFF5CFE4FFF3CFE4FFF4CFE4FFFACF13
:101F3000E4FF00EE1DF0140EE80403E3EECFE4FF2F
:101F4000FBD700EE31F0100EE80403E3EECFE4FF20
:101F5000FBD7E6529EA007D09E90D80ECF6EF00E13
:101F6000CE6E77EC13F0E55200EE40F0100EE80470
:101F700003E3E5CFEDFFFBD700EE30F0140EE804ED
:101F800003E3E5CFEDFFFBD7E5CFFAFFE5CFF4FFA5
:101F9000E5CFF3FFE5CFF5FFE5CFF7FFE5CFF6FFA0
:101FA000E5CFEAFFE5CFE9FFE5CFDAFF11008A6A66
:101FB000936A800ECD6ED80ECF6EF00ECE6EF26AA2
:101FC000F28C9E909D80CD801200030EE66E7C0EFA
:101FD000E66E86EC08F0E552E552000179517A117F
:101FE00058E1010EE66E7C0EE66E86EC08F0E552D6
:101FF000E552E66A7C0EE66E56EC09F0E552E552D3
:10200000E80EE66E030EE66E13EC13F0E552E552B1
:10201000E5EC12F00000030EE66E7C0EE66E56EC68
:1020200009F0E552E552050EE66E7C0EE66E86EC92
:1020300008F0E552E552E80EE66E030EE66E13EC8C
:1020400013F0E552E552E5EC12F00000050EE66EE5
:102050007C0EE66E56EC09F0E552E552040EE66E93
:102060007C0EE66E86EC08F0E552E552E80EE66E70
:10207000030EE66E13EC13F0E552E552E5EC12F0B8
:102080000000040EE66E7C0EE66E56EC09F0E5529A
:10209000E552640EE66EE66A13EC13F0E552E55283
:1020A000E5EC12F0000091D712000F0EE66E7C0EE8
:1020B000E66E26EC0AF0E552E55284B604D0010E35
:1020C0000001796F7A6B640EE66EE66A13EC13F02A
:1020D000E552E552E5EC12F00000E7D712000001EE
:1020E000010E791901E17A5101E0CFD08050080B3F
:1020F00001E1CBD0050EE66E7C0EE66E56EC09F0E3
:10210000E552E552040EE66E7C0EE66E56EC09F0E2
:10211000E552E552030EE66E7C0EE66E86EC08F0A4
:10212000E552E552010EE66E7C0EE66E56EC09F0C5
:10213000E552E552E66A7C0EE66E86EC08F0E55262
:10214000E552630E00017F6F806B0001800E8015E9
:1021500001E081D00001816B826B0F0E000182AF24
:1021600002D0D89003D0815D000E82596FE27FC00B
:1021700083F080C084F00A0E2A6E2B6A83C025F09B
:1021800084C026F0DEEC13F025C083F026C084F076
:102190007FC085F080C086F00A0E2A6E2B6A85C04B
:1021A00025F086C026F0DEEC13F021C085F022C0B9
:1021B00086F0100EE66E7C0EE66E86EC08F0E552B8
:1021C000E552110EE66E7C0EE66E56EC09F0E55215
:1021D000E55283C0E9FF84C0EAFFD890E936EA36C9
:1021E000650EE926000EEA22EF50816E050EE66EBE
:1021F000E66A3DEC0CF0E552E552110EE66E7C0EFF
:10220000E66E86EC08F0E552E552100EE66E7C0EA6
:10221000E66E56EC09F0E552E55285C0E9FF86C04E
:10222000EAFFD890E936EA36650EE926000EEA2282
:10223000EF50816E050EE66EE66A3DEC0CF0E5525D
:10224000E5520001812B000E822387D700017F0712
:10225000000E805B7AD7110EE66E7C0EE66E56ECB1
:1022600009F0E552E552E66A7C0EE66E56EC09F09E
:10227000E552E552010EE66E7C0EE66E86EC08F045
:10228000E552E5520001796B7A6B640EE66EE66A00
:1022900013EC13F0E552E552E5EC12F000001FD705
:1022A00012009FDC84DE65EC13F0AA0EE66E200EB1
:1022B000E66E010E19D9DE0EE66E200EE66E020EF7
:1022C00013D9CA0EE66E1F0EE66E030E0DD9F28EFE
:1022D000D0BEF28C41984186080E046E02C044F0D4
:1022E00003C045F0170E445C000E455805E3050E8B
:1022F000446E000E456E04D0060E4426000E4522A4
:102300000BEC13F0EF50400B2AE0EF50800B27E16D
:10231000EF50070B426ED880045421E2EFB60DD087
:10232000D4EC12F04350E15C04E04350E16EE7501E
:10233000D96E41A6CFD70BEC13F0EF50100B03E092
:10234000EF50200B0CE0EFA60AD0418844C000F00B
:1023500045C001F0EF50070B046EE85006E0025054
:102360004418C0E103504518BDE141A8B3D74196D8
:1023700000C044F001C045F000C002F001C003F00D
:102380000BEC13F0EF50400BA5E0EF50800BA2E1F7
:10239000C7D7D7D83DC028F03EC029F03FC02AF0AB
:1023A00040C02BF004EC14F0E1D838502620310660
:1023B000000E325A3150CB6ECB28336E346A256E04
:1023C00034C026F0FB0EDBCF2AF0FC0EDBCF2BF067
:1023D00038EC14F023C031F024C032F0190E2A6E0C
:1023E0002B6A23C025F024C026F0DEEC13F025C0B4
:1023F000DEFF26C0DDFF00016251336E346ADE501D
:102400003324316EDD503420326ED8903232313286
:10241000D890323231323150120033C025F034C0FE
:1024200026F0F6EC14F025C033F026C034F00A0E86
:102430002A6E2B6A8FEF12F0D9CFE6FFE1CFD9FFDA
:102440001200E552E7CFD9FF12006451E76EFD0E8E
:10245000DBCFE9FFFE0EDBCFEAFFE750E926000EF7
:10246000EA22EF50120000016225E824941662C0AF
:1024700035F0366A376A386A100E256E266A6FD8CC
:1024800038EC14F023C03DF024C03EF03F6A406AAF
:10249000120080D80C0E256E266A61D865EC14F007
:1024A00023C033F024C034F02350315C2450325820
:1024B0001200FD0EDBCF25F0FE0EDBCF26F0120062
:1024C000FD0EDBCF33F0FE0EDBCF34F01200FD0F3C
:1024D000E96EFF0EDA20EA6E1200FC0EDBCF25F06B
:1024E000FD0EDBCF26F01200E66E8DEC13F0E55208
:1024F000E552E55212000A0EE66EE66A3DEC0CF07B
:10250000E552E5521200070E6225CA6EFD0EA96E55
:10251000A6801200FE0EDB50000162251200F6ECD0
:1025200014F021C033F022C034F0000162510001E8
:102530002124316E000E2220326E300E3124CFEF76
:1025400012F0396A1B0E3A6EB70E3B6E3C6A39C008
:1025500023F03AC024F0256E3CC026F01200FD0E98
:10256000DBCF2AF0FE0EDBCF2BF0120035502324F8
:10257000316E36502420326E3750252012005CDF39
:1025800059EF12F059DF020EE126120055DFFE0E60
:10259000DB501200DECF31F0DDCF32F01200E66EFC
:0825A0006FEC0EF0E552120091
:0825A800030E39D8EF5004E0E6
:1025B000D950E76EE128D96EE150436EED50E12627
:1025C000ED50FA6EED50F96E1200030E28D843500C
:1025D000E15CED6EFE50ED6EFD50ED6EEF86060097
:1025E000120006001200426AFBEF12F0120042686D
:1025F000FBEF12F012004190030E11D84350E15C42
:10260000ED6EFE50ED6EFD50ED6EEF96EFA8EF9A79
:1026100042B0EF8A1200000E0FEF13F012004424B4
:10262000E96EEA6A1200D9CFE6FFE1CFD9FFE652A0
:10263000DF6ABDD8EE50ED1002E0010EDF6EEBDF79
:10264000EF9AEF98DFA019D0B2D8EE1EED1EFD0E66
:10265000DB2AFE0E01E3DB2A44C0E9FF45C0EAFFA6
:10266000040EE926000EEA22FD0EDBCFEEFFFE0E81
:10267000DBCFEDFFD0DFEF88EF86E552E552E7CF05
:10268000D9FF1200F250C00BF29ED0BEF29C120095
:10269000E8BEF28ED0BEE8AC01D0F28C1200419AB6
:1026A000BADF425006E0EFA602D0EF980DD0EF86D9
:1026B00001D0EF96EF50100B06E1EF50200B03E036
:1026C000EF86418A01D006001200416A170E026EA1
:1026D000000E036E059C0B9C119C179CFD0EA96EB1
:1026E000A694A69EA69CA680A850FEE1120000011A
:1026F00005B9093F02D00A4B05990BB90F3F02D02B
:10270000104B0B9911B9153F02D0164B119917B9FF
:102710001B3F02D01C4B17991200D9CFE6FFE1CF27
:10272000D9FF020EE1264192050EDE6E000EDD6E2F
:10273000426A38D8EF50400B1EE1FE0EDB8CDB8680
:1027400031D8EE52FC0EDBCFEEFFFD0EDBCFEDFFFE
:1027500029D8040EE926000EEA22EE6AED6A22D894
:10276000030EE926000EEA22EF6A1CD8FE0EDBCF2C
:10277000EFFF41920DD0D9CFE9FFDACFEAFF060E85
:10278000EE26000EEF22422A040E425CD2E3418282
:10279000020EE15C02E2E16AE552E16EE552E7CF4A
:1027A000D9FF1200DECFE9FFDDCFEAFF1200D950DA
:0C27B000FD0FE96EFF0EDA20EA6E120049
:0427BC001D6A2BAEB9
:1027C000E7EF13F02A6C2B1EE86A2B221D1E26AEA3
:1027D000EFEF13F0256C261EE86A26221D1EF6EC8C
:1027E00014F026BEFFEF13F01DAE000C256C261E64
:1027F000E86A2622216C221EE86A2222000C1DBEF5
:10280000F6EF13F01E88FF0C1D6AE86A2BAE11EF7D
:1028100014F0286C291E2A1E2B1E29222A222B2264
:102820001D1E26AE1CEF14F0236C241E251E261E32
:102830002422252226221D1ED2EC14F026BE33EFC0
:1028400014F01DAE000C236C241E251E261EE86A03
:102850002422252226221F6C201E211E221E202219
:1028600021222222000C1DBE23EF14F01E88FF0C33
:1028700026C030F025C02FF025502A02F4CF24F0D6
:10288000F3CF23F026502B02F4CF26F0F3CF25F020
:102890002A02F3502426F4502522E86A26222F50DB
:1028A0002B02F3502426F4502522E86A26222BAE70
:1028B0005EEF14F02F50255E3050265A30AE000CDB
:1028C0002A50255E2B50265A000C25C02FF025508B
:1028D0002A02F4CF24F0F3CF23F026502B02F4CFBA
:1028E00026F0F3CF25F02A02F3502426F4502522B7
:1028F000E86A26222F502B02F3502426F45025227A
:06290000E86A2622000C2B
:0A2906002A0EF66E100EF76E000E9A
:10291000F86E00010900F5508C6F0900F5508D6FBD
:1029200003E18C6701D03DD00900F550876F0900A5
:10293000F550886F0900F550896F09000900F550BE
:10294000E96E0900F550EA6E090009000900F5502A
:102950008A6F0900F5508B6F09000900F6CF8EF0E1
:10296000F7CF8FF0F8CF90F087C0F6FF88C0F7FF61
:1029700089C0F8FF00018A5302E18B5307E0090088
:10298000F550EE6E8A07F8E28B07F9D78EC0F6FF96
:102990008FC0F7FF90C0F8FF00018C07000E8D5B21
:0429A000BFD712008B
:0C29A400226A216A206A1F6A200EE76E7A
:1029B000D89023362436253626361F362036213643
:1029C000223628501F5C295020582A5021582B505D
:1029D000225809E328501F5E2950205A2A50215AB4
:0C29E0002B50225A232AE72EE4D71200C5
:0429EC00226A216AD0
:1029F000100EE76ED89025362636213622362A501C
:102A0000215C2B50225805E32A50215E2B50225A7C
:082A1000252AE72EF0D7120081
:082A1800FF0EE350466E480E6C
:102A200001D04C0EE76EE72EFED7E76AE72EFED701
:082A3000462EF7D7000012004A
:082A3800000EF36E00EE00F049
:102A4000080E01D81200EA6002D0EE6AFCD7F350FB
:082A5000E9601200EE6AFCD7F8
:082A580013EE00F023EE00F084
:102A6000F86A1E9C83EC14F048EC15F051EC11F060
:042A7000FBD712007E
:0C2A7400226A080EE76ED8902636223643
:102A80002B50225C02E3226E262AE72EF7D7120093
:022A9000120032
:0E2A9200DF0F0FDF0040007900240030001934
:0D2AA000001200020078000000100000008D
:00000001FF
